:020000040800F2
:100000007807002091010008990100089B01000871
:100010009D0100089F010008A101000800000000E8
:10002000000000000000000000000000A301000824
:10003000A501000800000000A7010008E50800086D
:10004000AB010008AB010008AB010008AB010008E0
:10005000AB010008AB010008AB010008AB010008D0
:10006000AB010008AB010008AB010008AB010008C0
:10007000AB010008AB010008AB010008AB010008B0
:10008000AB010008AB010008AB010008AB010008A0
:10009000AB010008AB010008AB010008AB01000890
:1000A000AB010008AB010008AB010008AB01000880
:1000B000AB010008AB010008AB010008AB01000870
:1000C000AB010008AB010008AB010008AB01000860
:1000D000AB010008AB010008AB010008AB01000850
:1000E000AB010008AB010008AB01000800F002F80A
:1000F00000F03FF80AA090E8000C82448344AAF183
:100100000107DA4501D100F034F8AFF2090EBAE880
:100110000F0013F0010F18BFFB1A43F0010318473B
:10012000C4190000E4190000103A24BF78C878C14F
:10013000FAD8520724BF30C830C144BF04680C60ED
:10014000704700000023002400250026103A28BF35
:1001500078C1FBD8520728BF30C148BF0B60704739
:10016000642900F07D80002070471FB51FBD10B5C9
:1001700010BD00F02AF91146FFF7F7FF00F0CEFF9F
:1001800000F048F903B4FFF7F2FF03BC00F050F9A8
:100190000948804709480047FEE7FEE7FEE7FEE71B
:1001A000FEE7FEE7FEE7FEE7FEE7FEE70448054957
:1001B000054A064B7047000029090008ED000008B9
:1001C00078010020780700207803002078030020C1
:1001D0000FB41CB5074B06AA7B44694600900598EE
:1001E00000F0DBF80020694600F0EAF81CBC5DF87E
:1001F00014FB0000E50100002DE9F0410E46044625
:10020000002020622046E168884730B3252805D0C9
:10021000D4E901219047206A401CF2E7E1682046BA
:1002200000278847050018D0A5F14100192802D8F9
:1002300020354FF400673246294620462760FFF7F5
:100240008FFF40B1012804D0F61D26F007060836BE
:10025000D8E7361DD6E72846DAE7206ABDE8F08100
:100260002DE9F0410646002410687529314616A58F
:1002700010D0AFF30080002802DA404213A507E057
:1002800031688A0701D512A502E0490704D511A5F6
:10029000012401E0AFF3008000210A2206F12407C7
:1002A00009E0B0FBF2FCB0FBF2F302FB1C003030C3
:1002B00078541846491C0028F3D123462A46304674
:1002C000BDE8F04100F00BB8000000002D00000078
:1002D0002B000000200000007047704770472DE998
:1002E000F0470D4699469246044600F124080168FD
:1002F000880604D5E06921F01001216000E00120AA
:10030000A84201DD471B00E00027A1697A1902EB32
:100310000900081AA0612078C00602D42046AFF375
:100320000080002608E0D4E901211AF80600904771
:10033000206A401C761C20624E45F4DB2078C00603
:100340000AD52046AFF3008006E0D4E90121302031
:100350009047206A401C2062381EA7F10107F4DC98
:1003600007E0D4E9012118F805009047206A401CF5
:100370002062281EA5F10105F3DC2046AFF30080C2
:100380002078000602D50220BDE8F0870120FBE7B7
:1003900001694A1C02610878704700B58FB0CDE949
:1003A00001310021059105497944CDE90310114639
:1003B0006846FFF721FF0FB000BD0000E5FFFFFF1B
:1003C0000A6802F8010B0A607047754600F02CF8C5
:1003D000AE4605006946534620F00700854618B032
:1003E00020B5FFF7E3FEBDE820404FF000064FF0D8
:1003F00000074FF000084FF0000B21F00701AC465A
:10040000ACE8C009ACE8C009ACE8C009ACE8C00978
:100410008D46704710B50446AFF300802046BDE816
:100420001040FFF7AFBE00000048704718010020E1
:1004300001491820ABBEFEE72600020070470146C6
:10044000302905DB392903DCA1F13002D0B202E00A
:10045000A1F13702D0B2704700B5092304E0184675
:1004600000F006F8581CC3B2402BF8DB00BD0000BA
:1004700000BF1949C96801F001010029F9D11649E5
:100480000969C1F3C01121B11449134A51601449DB
:1004900051601149096941F002010F4A11614FF0A1
:1004A000006101EB802151611146096941F0400171
:1004B000116100BF0849C96801F001010029F9D1A3
:1004C0000549C96841F02001034AD1601146096914
:1004D00021F00201116170470020024023016745AD
:1004E000AB89EFCD30B50B4600BF1949C96801F0A3
:1004F00001010029F9D116490969C1F3C01121B1DF
:100500001449134C61601449616000211DE0104CD6
:10051000246944F001040E4D2C6133F8114004802D
:10052000801C00BF0A4CE46804F00104002CF9D1DF
:10053000074CE46844F02004054DEC602C46246927
:1005400024F001042C614C1CE1B29142DFDB30BD90
:100550000020024023016745AB89EFCD10B5144858
:1005600000F050FD002013490870012000F00CFA43
:100570000F49104A1278885412E00D480D49097845
:10058000405C0A2800D111E00A480078401C094963
:100590000870012000F0F8F90549064A12788854DD
:1005A000034804490978405CFF28E6D100BF10BD2C
:1005B00014000020000000202DE9FE4F04464FF0FB
:1005C000000B6078FFF73BFF0190A078FFF737FF43
:1005D0000290DDE9011040EA0110C6B2E078FFF7B1
:1005E0002EFF07462079FFF72AFF80466079FFF744
:1005F00026FF8146A079FFF722FF82462648006841
:100600006FF30F00244908600846006840EA0A00BA
:1006100040EA091040EA082040EA07300860002557
:1006200028E0A9000931605CFFF709FF0746A9002F
:100630000A31605CFFF703FF8046A9000B31605C64
:10064000FFF7FDFE8146A9000C31605CFFF7F7FE65
:1006500082464FEA0A2040EA093040EA080040EAB0
:1006600007100E4921F81B000BF1010000F0FF0BF1
:10067000681CC5B206EBD671B5EB610FD1DB06EB9A
:10068000D670C0F347020549034800960068FFF79B
:1006900029FFBDE8FE8F0000080000205000002068
:1006A000F0B50346587AFFF7CAFE0446987AFFF77A
:1006B000C6FE0546D87AFFF7C2FE0646187BFFF74E
:1006C000BEFE07460848008880B207490860200738
:1006D00040EA056040EA065040EA074009680843DE
:1006E00001490860F0BD00000800002010B5044674
:1006F000207A302802D0342808D103E02046FFF7C2
:100700005BFF04E02046FFF7CBFF00E000BF00BF27
:1007100010BD00001F291EDC20B101280AD00228CC
:1007200018D10FE00C4A526901238B401A430A4B3F
:100730005A610FE0084AD36901228A401343064AEE
:10074000D36107E0044A926901238B401A43024BAC
:100750009A6100BF00BF7047001002400C4840681B
:1007600020F001000A4948600846406820F0020075
:1007700048600846006840F00100086008460068CC
:1007800040F08000086081200860002048607047C9
:100790000010024000204FF0E02108617047000087
:1007A0004FF0E0225061126942F001024FF0E02365
:1007B0001A61074A11600022064B1A704FF0E022BE
:1007C000126942F002024FF0E0231A617047000004
:1007D0000C000020100000204FF0E020006920F005
:1007E00002004FF0E02108610846006920F0010096
:1007F0000861002048618861704710B500F002F878
:1008000010BD00000CB50020019000903348006836
:1008100040F480303149086000BF3048006800F47F
:10082000003000900198401C0190009818B9019880
:10083000B0F5A06FF1D12948006800F4003010B184
:100840000120009001E0002000900098012843D191
:100850002348006840F010002149086008460068FD
:1008600020F0030008600846006840F002000860BD
:100870001A48406819494860084640684860084678
:10088000406840F4806048600846406820F47C106E
:1008900048600846406840F4E81048600846006830
:1008A00040F08070086000BF0C48006800F00070E5
:1008B0000028F9D00948406820F003000749486043
:1008C0000846406840F00200486000BF03484068A6
:1008D00000F00C000828F9D10CBD00000010024007
:1008E0000020024010B50E48007878B94FF0E020A3
:1008F000006920F002004FF0E0210861084600691D
:1009000020F0010008610020486188610548006806
:1009100080474FF0E0200069C0F3004410BD0000A4
:10092000100000200C00002010B51348006840F0B3
:1009300001001149086008464068104908400E4906
:100940004860084600680E4908400B4908600846A0
:10095000006820F4802008600846406820F4FE000B
:1009600048604FF41F008860FFF747FF4FF00060BA
:100970000449086010BD0000001002400000FFF8AC
:10098000FFFFF6FE08ED00E002460021012A04D038
:10099000022A16D0032A3CD127E000E0491C1E4859
:1009A000006800F0200010B91C488142F6D31B48B3
:1009B000814201D1FF2070471748001D0068C0B276
:1009C000F9E700E0491C1648006800F0200010B963
:1009D00012488142F6D31148814201D1FF20EAE753
:1009E0000F48001D0068C0B2E5E700E0491C0D4853
:1009F000006800F0200010B908488142F6D307488B
:100A0000814201D1FF20D6E70648001D0068C0B230
:100A1000D1E70020CFE7000000380140A0860100A8
:100A20000044004000480040012804D002281FD0A4
:100A3000032859D13BE02E4A126822F47F622C4BE6
:100A40001A601A46126842F40B621A60284A083289
:100A5000126842F48062264B08331A6042F20C029C
:100A6000244B1A60244AB2FBF1F21B1F1A603CE0CF
:100A70001F4A121F126822F47F421D4B1B1F1A606F
:100A80001A46126842F40B421A60194A0832126878
:100A900042F00802164B08331A6042F20C02174B60
:100AA0001A60174AB2FBF1F21B1F1A601DE0154ACB
:100AB000126822F47F42134B1A601A46126842F4FD
:100AC0000B421A600F4A0832126842F400620D4B62
:100AD00008331A6042F20C020B4B1A60084AB2FB50
:100AE000F1F21B1F1A6000E000BF00BF704700005A
:100AF000040801400C38014000127A000C44004008
:100B000000093D00040C01400C4800402DE9F04F65
:100B100089B081460D4616460024B9F1010F06D072
:100B2000B9F1020F7ED0B9F1030F7CD18BE1022E17
:100B30002CD1F8A104A82A68FFF74AFB002020E086
:100B400000E0641CF449096801F0800111B9F3491F
:100B50008C42F6D304A9095CEF4A121D11600024EF
:100B600000E0641CEC49096801F0400111B9EB494F
:100B70008C42F6D3E849096821F04001E64A116049
:100B8000401C04A9095C0029DAD196E0032E4BD160
:100B9000286800F0BBFDCDE9000100F03FFA0746F0
:100BA00000F012FB82465146286800F025FF0390B2
:100BB000504600F039FE0290D948039900F050FEEB
:100BC000074600F031FE83465B46D6A104A8029A90
:100BD000FFF7FEFA002020E000E0641CCE4909681F
:100BE00001F0800111B9CD498C42F6D304A9095C0A
:100BF000C94A121D1160002400E0641CC64909683E
:100C000001F0400111B9C5498C42F6D3C2490968C7
:100C100021F04001C04A1160401C04A9095C002970
:100C2000DAD14AE04AE0E4E1042E25D100201FE0B9
:100C300000E0641CB849096801F0800111B9B749A6
:100C40008C42F6D3295CB44A121D1160002400E0E6
:100C5000641CB149096801F0400111B9AF498C42E7
:100C6000F6D3AD49096821F04001AB4A1160401C40
:100C7000295C0029DCD120E0012E1ED100E0641C9B
:100C8000A548006800F0800010B9A4488442F6D35B
:100C90002878A149091D0860002400E0641C9E48D2
:100CA000006800F0400010B99C488442F6D39A488E
:100CB000006820F04000984908609BE1022E2CD18A
:100CC00094A104A82A68FFF783FA002020E000E03E
:100CD000641C9649096801F0800111B98F498C4262
:100CE000F6D304A9095C914A121D1160002400E0AA
:100CF000641C8E49096801F0400111B987498C4292
:100D0000F6D38A49096821F04001884A1160401CE5
:100D100004A9095C0029DAD194E0032E49D128689E
:100D200000F0F4FCCDE9000100F078F9074600F08E
:100D30004BFA82465146286800F05EFE039050460A
:100D400000F072FD02907648039900F089FD074695
:100D500000F06AFD83465B4672A104A8029AFFF781
:100D600037FA002020E000E0641C7049096801F0B7
:100D7000800111B969498C42F6D304A9095C6B4A18
:100D8000121D1160002400E0641C6849096801F02C
:100D9000400111B961498C42F6D36449096821F0D8
:100DA0004001624A1160401C04A9095C0029DAD1A3
:100DB00048E0042E25D100201FE000E0641C5B49C0
:100DC000096801F0800111B954498C42F6D3295CBD
:100DD000564A121D1160002400E0641C5349096842
:100DE00001F0400111B94D498C42F6D34F490968D1
:100DF00021F040014D4A1160401C295C0029DCD1E2
:100E000020E0012E1ED100E0641C4848006800F07C
:100E1000800010B941488442F6D328784349091D1F
:100E20000860002400E0641C4048006800F04000B6
:100E300010B93A488442F6D33C48006820F040009C
:100E40003A490860D6E0022E2CD132A104A82A68C3
:100E5000FFF7BEF9002020E000E0641C3449096877
:100E600001F0800111B92D498C42F6D304A9095C27
:100E70002F4A121D1160002400E0641C2C490968EF
:100E800001F0400111B925498C42F6D3284909687F
:100E900021F04001264A1160401C04A9095C002988
:100EA000DAD1A5E0032E5AD1286800F02FFC0746BE
:100EB00000F0B4F8CDE9000100F086F98246514611
:100EC000286800F099FD0390504600F0ADFC0290B8
:100ED0001348039900F0C4FC074600F0A5FC8346C4
:100EE0005B4610A104A8029AFFF772F9002031E0D6
:100EF00000E0641C0E49096801F0800111B907493E
:100F00008C42F6D304A9095C094A121D1160002421
:100F100011E000002564000000380140A0860100B7
:100F200000007A4425642E2564000000004400403F
:100F300000480040641C3149096801F0400111B9C2
:100F40002F498C42F6D32D49096821F040012B4AE4
:100F50001160401C04A9095C0029C9D148E0042E95
:100F600025D100201FE000E0641C2449096801F03D
:100F7000800111B922498C42F6D3295C1F4A121D07
:100F80001160002400E0641C1C49096801F0400164
:100F900011B91B498C42F6D31849096821F0400168
:100FA000164A1160401C295C0029DCD120E0012E8A
:100FB0001ED100E0641C1148006800F0800010B9E8
:100FC0000F488442F6D328780C49091D0860002494
:100FD00000E0641C0948006800F0400010B90848AF
:100FE0008442F6D30548006820F0400003490860B9
:100FF00000E000BF00BF09B0BDE8F08F004800402E
:10100000A08601000146002000BF03E000220A5430
:10101000421CD0B23C28F9DB704700002DE9F041BA
:10102000C1F30A52A2F2FF362F4A304B0D46044656
:10103000142E2FDA002E12DA00F0F8F800221346F0
:1010400000F038FA4CD2002DA4BF0024254647DA20
:1010500025F00040204318BF254D41D018E0DFF8AF
:1010600094C02CFA06F705EA070C5CEA040C08BFEA
:10107000BDE8F08100F0DAF80022134600F01AFA19
:101080002ED2002D03DA4FF48010F0400544BD430A
:10109000002425E0332EC8BFBDE8F081A6F1140C72
:1010A0004FF0FF3727FA0CF73C4208BFBDE8F0814C
:1010B00000F036FA0022134600F0FCF910D2002DA1
:1010C0000DDA142E08BF6D1C09D0C6F134000121C1
:1010D00001FA00F02044A04238BF6D1C0446BC4316
:1010E00029462046BDE8F0819C7500883CE4377EA7
:1010F0000000F0BFFFFF0F0010B50548054908606C
:10110000001D00680449086008460068804710BD5B
:101110000024000808ED00E00400002010B5FFF7EF
:101120001DFB02210846FFF7F5FA0E210220FFF70A
:10113000F1FA04210020FFF7EDFA03210220FFF766
:10114000E9FA12210120FFF7E5FAFFF723FB4FF43C
:10115000E1310120FFF768FC14491548FFF720FB37
:101160001EE0FFF7FBF9134813490978405CFF289C
:1011700012D0FFF731FB11480078012804D1FFF7A6
:101180006BF900200D4908700A48FFF7AFFA0422F6
:101190000BA10120FFF7BAFC04490548FFF700FB4B
:1011A000084800780028DCD0002010BDF9100008A5
:1011B000404B4C00140000200000002002000020E2
:1011C0006F6B00000100002021F00042A2F160528C
:1011D000B2F5801F01F0004328BFD2F17F6C0BD91C
:1011E0005FEA001C43EAC20242EB507018BF70472E
:1011F00028BF20F001007047B2F5801FBCBF184621
:1012000070474FEA410C1CF5001F02D2084600F05F
:10121000EEBB70B500F0FAF800000089FFF7F6BFEA
:101220004FF00040A0F580007047000010B591EA33
:10123000030F48BF83F0004300F18681841A71EBED
:10124000030C05D2121943EB0C03001B61EB0C01DC
:10125000DFF824E14FEA1154A4EB135C1EEA430FBC
:1012600018BF9EEA445F73D023EA0E03DCF1200E20
:1012700021EA045143F4801332D322FA0CFE10EB1E
:101280000E0023FA0CFE41EB0E01CCF1200E03FA06
:101290000EFE10EB0E0051F10001B1F5801FCCF1F4
:1012A000200E32D201EB045112FA0EF2BDE81040CA
:1012B00058BF7047401C38BF5FEA420218BF7047F2
:1012C000002814BF20F0010041F100014FEA410362
:1012D00013F5001F38BF7047A1F1C04100F0E4B81A
:1012E000012A43EB0302ACF1200CDCF11F0E32BFEC
:1012F0004FF0000E23FA0CF310EB030041EB045106
:10130000B4EB115FD0D0A1EB045101F58011490875
:101310005FEA300001EB04510ED350F1000038BFFA
:1013200012FA0EFE08D1BDE81040C9E7401C38BFD4
:101330005FEA4202CAD1C3E7BDE810404FEA410369
:1013400013F5001F38BF7047A1F1C04100F0ACB8E1
:101350009EEA445F08D011EA5E0FBDE8104004BF6A
:1013600001F0004100207047BDE8104070B500F06A
:101370004DF800BF64FBBE3E0000E0FF491058BFBF
:10138000C1F140415B1058BFC3F140438B42EFF3C2
:101390000080704751EA030C17D41CF5801F58BF1A
:1013A000BCF5801F00F10680994218BF704708BF46
:1013B0009042704707D711F5801F58BF13F5801F63
:1013C00019D499427047894270471CF5801F08D58F
:1013D000BCF5801FF7D58B4218BF704708BF82420B
:1013E00070474FF4001C1CEB410F38BF1CEB430F40
:1013F00001D28B42704770B500F008F89224490082
:101400004FF000514FF08053FFF7B8BF0EF1020EBE
:101410002EF0030E5EF8046B364205D4012A43EB2E
:10142000030515F5001F12D8012841EB010C1CF52E
:10143000001F0CD80ED14FEAD17C15F5001F0CEB24
:101440004C0C0CF1020C08BF4CEBD37C04E04FF0C9
:10145000080C01E04FEAD37C0CEB4C0526FA05F6AC
:1014600006F00706B6F1040C06D20EEB860CBDE8BA
:1014700070404CF0010C6047DFE80CF0090B0202F1
:101480004FF000414FF00000A1F5002170BD19465A
:101490001046012851EB010418BFD4F5001484BF95
:1014A000002001F0004170BD0808A0F500114FEACE
:1014B0003101704753EA010C17D41CF5801F58BF47
:1014C000BCF5801F00F106808B4218BF704708BF33
:1014D0008242704707D713F5801F58BF11F5801F50
:1014E00019D48B4270479B4270471CF5801F08D56A
:1014F000BCF5801FF7D5994218BF704708BF9042CE
:1015000070474FF4001C1CEB430F38BF1CEB410F1E
:1015100001D2994270470FB40CBC03BCFFF76BBFFC
:1015200091EA030F10B581F000413FF587AE83F0DB
:10153000004300F009B8000010B591EA030F48BF5E
:1015400083F000433FF57AAE841A71EB030C07D2A7
:1015500012198CF0004C43EB0C03001B61EB0C01E7
:10156000DFF8A4E14FEA1154A4EB135C1EEA430F29
:1015700018BF9EEA445F00F0B08023EA6E03524237
:1015800021EA0451C3EB6E0338BF5B1EDCF1200E71
:1015900025D322FA0CFE10EB0E0043FA0CFE41EBB1
:1015A0000E01CCF1200E03FA0EFE10EB0E0051F1ED
:1015B0000001CCF1200E29D412FA0EF201EB0451F5
:1015C000BDE8104058BF7047401C1CBFB2F1004F2F
:1015D000704700280CBF491C20F00100704712EB37
:1015E000020E43EB030218BF4FF0010E4EEA420217
:1015F000ACF1200CDCF11E0E54D943FA0CFE10EBBA
:101600000E0051F1FF31CCF11E0ED5D50EF1010EB9
:1016100012FA0EFE404141EB010101EB445C5FEA2E
:101620005C5C10D910EBDE7001EB045138BFBEF1E9
:10163000004FBDE8104018BF704700280CBF491C80
:1016400020F00100704730D24FEAD42C11F5001180
:1016500024F400641BD0B1FA81F20B3AA41AA41E40
:10166000D2F12003914030FA03F31943904001EB8B
:10167000CC71002C01EB0451BDE81040A8BF7047AD
:1016800001F1C0414FF0000001F000417047B0FA95
:1016900080F310FA03F100D110BDE41A173C48059D
:1016A000C90AE4E701EB045110BD491001EB0451F4
:1016B000BDE810404FEA300002E04FF000017047F3
:1016C0004A0008BF0042F8D0B2F5001F28BF70479B
:1016D00001F000414FF0000070479EEA445F07D0E0
:1016E00011EA5E0FBDE8104004BF002100207047E2
:1016F000BDE8104070B5FFF789FE00BF40DFF63E41
:1017000083F00041104670470000E0FF43004FEABD
:10171000D30C4FEA3C0C43401FBF40070CF1605113
:1017200013F0FE4F70471CF0006F03D100200CF047
:10173000004170470CF0004343EA507010B540EA96
:10174000CC0000F00EF900BF000000924FEA00014B
:10175000FFF7AABE4FF000414FF00000A1F50021B5
:101760007047000090EA010F48BF81F0004100F18E
:101770004A81421A3CBF801A89184FEAD0524FF072
:101780007F4C1CEA410FA2EBD15318BF9CEA026FB9
:1017900000F03B804FF0004C4CEA00204CEA012165
:1017A00021FA03FC10EB0C0C1ED202F1FF325FEAAF
:1017B0001C2040EBC25038BF70471CF07F0F4FEA2F
:1017C000400C18BFBCF17F4F38BF7047C3F12003F6
:1017D000994008BF20F00100BCF17F4F38BF70472F
:1017E000A0F1C04000F003B94FEA3C00000A40EB12
:1017F000C25028BF1CF0FF0F4FEA400CE6D018BFC4
:10180000BCF17F4F38BF7047EAE79CEA026F05D012
:1018100010EA5C0F08BF00F00040704710B500F000
:10182000A0F800BF64FBBE3E41000B0ED3F19E0248
:1018300008D950F400034FEA032323FA02F048BF0B
:101840004042704710B500F08CF800BF49922480E8
:10185000002070476FF0004282EA200070470000CD
:101860004FF47F0C1CEAD0121EBF1CEAD11392EA7F
:101870000C0F93EA0C0F00F0478090EA010F48BF6D
:1018800042F480724FF0004C4CEA00204CEA0121F7
:1018900002EB0302A0FB0113A2F50002002918BF0E
:1018A00043F001035B0028BF4FEA330342EB2242BF
:1018B0005FEA132C4CEBC2502EBFBCEB436FB2F56A
:1018C0007C0F70474FEA036CBCF1004F08BF20F05B
:1018D0000100B2F57C0F38BF70470BD582F0FF02D4
:1018E00012F5803FC8BF704700F1C040D8BF00F07C
:1018F0000040704700F5000C5FEA4C0C48BF704791
:10190000B0F1C04000F073B890EA010F0CEAD113B7
:1019100048BF42F48072624538BF634504D280EA12
:10192000010000F00040704710B500F01AF800BF49
:101930008900013E00F007B800F009B85FEA410CE9
:101940005FEA1C6C08D080EA010000F050B85FEA42
:10195000400C5FEA1C6CF6D14FF00040A0F580000F
:1019600070470EF1020E2EF0030E5EF8044B244277
:1019700004D44FEA4102B2F17F4F11D84FEA40033D
:10198000B3F17F4F0CD80ED14FEAD07CB2F17F4F2C
:101990000CEB4C0C0CF1020C08BF4CEBD17C04E0BE
:1019A0004FF0080C01E04FEAD17C0CEB4C0324FA19
:1019B00003F404F00704B4F1040C06D20EEB840C1B
:1019C000BDE810404CF0010C6047DFE80CF0070860
:1019D00002024FF00040A0F5800010BD0846420012
:1019E00018BFD2F1807288BF00F0004010BDFF2107
:1019F00041EAD050C005704790EA010F48BF81F01E
:101A000000413FF5B6AE421A04D882F00042A0EB86
:101A1000020011444FEAD0524FF07F4C1CEA410FB4
:101A2000A2EBD15318BF9CEA026F4AD04FF0004C92
:101A30004CEA00204CEA012121FA03FCB0EB0C0C2B
:101A40000FD412F0FE0F36D05FEA4C001DD5001205
:101A500040EBC25038BF70471CF03F0F18BF7047B3
:101A60000BE0A2F101025FEA1C2040EBC25038BF3C
:101A700070471CF07F0F18BF7047C3F120039940D7
:101A800014BF401E20F00100704780084FEA122367
:101A900008BF7047B0FA80FCA2EB0C02CCF1280C16
:101AA00060FA0CF093EA122F04BF00EBC2507047AB
:101AB0004FEAC3707047130A5FEADC1008BF704733
:101AC000F6E79CEA026F04D010EA5C0F08BF002022
:101AD000704710B5FFF745FF40DFF63E81F000404C
:101AE00070470000041B00080000002014000000E4
:101AF00028010008181B00081400002064070000DB
:101B0000440100080000010000000000000000087F
:081B10000000000000000000CD
:04000005080001915D
:00000001FF
