:020000040800F2
:1024000088060020892500089125000893250008EA
:102410009525000897250008992500080000000070
:102420000000000000000000000000009B250008E4
:102430009D250008000000009F250008D9290008FC
:10244000A3250008A3250008A3250008A32500084C
:10245000A3250008A3250008A3250008A32500083C
:10246000A3250008A3250008A3250008A32500082C
:10247000A3250008A3250008A3250008A32500081C
:10248000A3250008A3250008A3250008A32500080C
:10249000A3250008A3250008A3250008A3250008FC
:1024A000A3250008A3250008A3250008A3250008EC
:1024B000A3250008A3250008A3250008A3250008DC
:1024C000A3250008A3250008A3250008A3250008CC
:1024D000A3250008A3250008A3250008A3250008BC
:1024E000A3250008A3250008A325000800F002F892
:1024F00000F03AF80AA090E8000C82448344AAF164
:102500000107DA4501D100F02FF8AFF2090EBAE861
:102510000F0013F0010F18BFFB1A43F00103184717
:102520006C0500008C050000103A24BF78C878C103
:10253000FAD8520724BF30C830C144BF04680C60C9
:10254000704700000023002400250026103A28BF11
:1025500078C1FBD8520728BF30C148BF0B60704715
:102560001FB51FBD10B510BD00F031F81146FFF7C3
:10257000F7FF00F075FA00F04FF803B4FFF7F2FF31
:1025800003BC00F057F8000009488047094800479D
:10259000FEE7FEE7FEE7FEE7FEE7FEE7FEE7FEE713
:1025A000FEE7FEE704480549054A064B7047000070
:1025B000012A0008ED240008880000208806002079
:1025C00088020020880200207047704770477546D7
:1025D00000F02CF8AE4605006946534620F007008F
:1025E000854618B020B5FFF7DDFFBDE820404FF06D
:1025F00000064FF000074FF000084FF0000B21F0ED
:102600000701AC46ACE8C009ACE8C009ACE8C009B9
:10261000ACE8C0098D46704710B50446AFF30080A2
:102620002046BDE81040FFF7A8BF000000487047F3
:102630002800002001491820ABBEFEE7260002005A
:102640007047000030B520B101282FD002287CD17E
:1026500059E0072910DC434B1B688D000F24AC4068
:10266000A343404C236023461B688C0002FA04F409
:1026700023433C4C236018E00F2916DC394B1B1D0B
:102680001B68A1F10804A5000F24AC40A343354CFE
:10269000241D236023461B68A1F10804A40002FA4C
:1026A00004F423432F4C241D236059E0072910DC38
:1026B0002D4B1B688D000F24AC40A3432A4C236094
:1026C00023461B688C0002FA04F42343264C236043
:1026D00018E00F2916DC244B1B1D1B68A1F1080410
:1026E000A5000F24AC40A3431F4C241D23602346A8
:1026F0001B68A1F10804A40002FA04F423431A4C55
:10270000241D23602CE0072910DC184B1B688D006A
:102710000F24AC40A343154C236023461B688C0058
:1027200002FA04F42343114C236017E00F2915DC4F
:102730000E4B5B68A1F10804A5000F24AC40A34335
:102740000A4C636023465B6800E008E0A1F10804DE
:10275000A40002FA04F42343044C636000E000BFC9
:1027600000BF30BD00080140000C014000100140D6
:1027700020B101280AD0022818D10FE00D4A1268B2
:1027800001238B405A400B4B1A6010E00A4A126832
:1027900001238B405A40084B1A6008E0074AD26870
:1027A00001238B405A40054BDA6000E000BF00BFB8
:1027B000704700000C0801400C0C01400010014063
:1027C0001F291EDC20B101280AD0022818D10FE0F1
:1027D0000C4A526901238B401A430A4B5A610FE09D
:1027E000084AD36901228A401343064AD36107E0AD
:1027F000044A926901238B401A43024B9A6100BF3D
:1028000000BF7047001002401A48406820F00100E5
:10281000184948600846406840F002004860084691
:10282000406820F4701048600846406840F4E010AA
:1028300048600846006840F48030086008464068F8
:1028400040F4803048600846406820F4003048601A
:102850000846406840F4806048600846006840F0E0
:102860008070086000BF03480068C0F34060002823
:10287000F9D070470010024000B5034642F22830FC
:102880004343184600F006F800BD00204FF0E02159
:10289000086170474FF0E0214861096941F001018A
:1028A0004FF0E022116100BF4FF0E0210969C1F350
:1028B00000410029F8D04FF0E021096921F0010121
:1028C0004FF0E022116100215161916170474FF09A
:1028D000E020006920F002004FF0E0210861084686
:1028E000006920F00100086100204861886170479C
:1028F00010B500F001F810BD0CB50020019000905B
:102900003348006840F480303149086000BF3048E7
:10291000006800F4003000900198401C019000987D
:1029200018B90198B0F5A06FF1D12948006800F4FA
:10293000003010B10120009001E0002000900098CC
:10294000012843D12348006840F010002149086065
:102950000846006820F0030008600846006840F060
:10296000020008601A4840681949486008464068F3
:1029700048600846406840F4806048600846406807
:1029800020F47C1048600846406840F4E810486035
:102990000846006840F08070086000BF0C4800687E
:1029A00000F000700028F9D00948406820F00300CA
:1029B000074948600846406840F00200486000BF90
:1029C0000348406800F00C000828F9D10CBD000055
:1029D000001002400020024010B50748007808B9F6
:1029E000FFF775FF0548006880474FF0E020006959
:1029F000C0F3004410BD00000400002000000020CF
:102A000010B51348006840F00100114908600846FD
:102A10004068104908400E494860084600680E4961
:102A200008400B4908600846006820F480200860D0
:102A30000846406820F4FE0048604FF41F0088609C
:102A4000FFF756FF4FF000600449086010BD00001A
:102A5000001002400000FFF8FFFFF6FE08ED00E066
:102A6000FFF7D2FE04210220FFF7AAFE01220D216A
:102A70000220FFF7E7FDFFF708FF06E00D21022027
:102A8000FFF776FEC820FFF7F7FEF7E7AC2A00084D
:102A9000000000202800000028250008D42A000893
:102AA0002800002060060000442500080000000007
:102AB0000000000000000000000000000000000016
:102AC0000000000000000000000000000000000006
:042AD0000000000002
:04000005080024EDDE
:00000001FF
